:02000000D02A04
:10000600831203179801990122081902031D0D286E
:1000160021081802031821289601970100301702BB
:10002600031D1728A530160203181D28960A031962
:0E003600970A1128980A0319990A072808004A
:100044000F30831203130805F100F0300317200565
:10005400F000700871040313880008148814000069
:10006400881001300317A1000030A20003200F30D4
:1000740003130805F20003172008F000F00D7010B8
:10008400F00D7010F00D7010F00D70107008720407
:100094000313880088140000881003300317A1009C
:0800A4000030A2000320080057
:1000AC00831203137008F100F0010830FC00710892
:1000BC00F40C03186528FC0B5E28F10100340310C6
:1000CC006A28F40C0318F107F10CF00CFC0B6728F0
:0200DC0008001A
:1000DE0083120313F801F9011030FC00710DF80DB5
:1000EE00F90D7408F8027508031C750FF902031850
:1000FE0087287408F80775080318750FF907031099
:0A010E00F00DF10DFC0B7528080040
:100118000F30831203130805F100F03003171F0591
:10012800F000700871040313880008108814000098
:10013800881001300317A1000030A20003200F30FF
:1001480003130805F20003171F08F000F00D7010E4
:10015800F00D7010F00D7010F00D70107008720432
:100168000313880088140000881003300317A100C7
:080178000030A2000320080082
:10018000831203171F0884000008003A0319CF28C0
:100190001F0884000008A00022209F0AC028080031
:0E01A0008312031715088A0014088200080055
:1001AE008312031386018312061EE228861EE2289E
:1001BE00061FE2283F29061086158619E828061123
:1001CE00E92806150619ED288610EE288614061E57
:1001DE00F528861EF528061FF528FF28643003171C
:1001EE00A1000030A200032083160313E9013F296A
:1001FE00831286100614061E0929861E0929061F5B
:10020E000929142964300317A1000030A20003202D
:10021E00013083160313E9003F2983120611861459
:10022E00061E1E29861E1E29061F1E292929643018
:10023E000317A1000030A20003200230831603131F
:10024E00E9003F29831286110615061E3329861EE4
:10025E003329061F33293E2964300317A1000030CD
:10026E00A2000320033083160313E9003F29DA2886
:10027E008312061A4E29861E4E29061F4E296430F9
:10028E000317A1000030A200032090016A29031772
:10029E00061E5D29861A5D29061F5D296430A100A0
:1002AE000030A2000320013090006A29061E6A2940
:1002BE00861E6A29061B6A296430A1000030A2003E
:1002CE00032002309000061E7129861E7129061F1A
:1002DE00712972296A290330F00083160313690805
:1002EE00F4005620CB30F007031710087007840077
:0602FE000008F0000800FA
:100304000130831203179F008C200330A1000030BA
:06031400A2000320080016
:0E031A00F0308316031386007F308105080043
:100328008312031791011A08013C031CA5290F30F9
:100338001B05F000F0177008910070089F008C20D2
:10034800AF290F301B05F000C030F0047008910091
:0E03580070089F008C201C089F00C020080029
:100366008316031388013430FC00F130FD00FD0BC9
:10037600BA29FC0BBA2900000000023083120317C9
:100386009F008C2028309F008C2001309F008C20FD
:0E0396000C309F008C2006309F008C20080049
:1003A400831203179D0105301D020318E0291D085F
:1003B4001C078400203080009D0AD5291D081C07D5
:1003C400840080019D031D081C079E000A30F40070
:1003D400F5011A08F0001B08F1006F207808F000FE
:1003E4007908F1003030F00703171E088400700804
:1003F40080000A30F400F5011A08F0001B08F1002F
:100404006F20700803179A0071089B000030710672
:10041400031D0E2A00307006031D112A132A9D03A2
:04042400E5290800BE
:100428000030831203171C06031D1C2A01301B060B
:10043800031D502A1A08003A031D4F2A09300313D6
:10044800850002300317A1000030A20003200C3001
:100458000313850002300317A1000030A200032017
:1004680006300313850002300317A1000030A200F4
:10047800032003300313850002300317A100003066
:10048800A200032009300313850002300317A100DE
:100498000030A2000320C32A00301C06031D562A80
:1004A80002301B06031D8A2A1A08003A031D892AEE
:1004B80090300313870002300317A1000030A20018
:1004C8000320C0300313870002300317A100003057
:1004D800A200032060300313870002300317A10035
:1004E8000030A200032030300313870002300317C6
:1004F800A1000030A20003209030031387000230CF
:100508000317A1000030A2000320C32A00301C06F4
:10051800031D902A03301B06031DC32A1A08003A3C
:10052800031DC32A09300313870002300317A100F3
:100538000030A20003200C30031387000230031799
:10054800A1000030A2000320063003138700023008
:100558000317A1000030A200032003300313870013
:1005680002300317A1000030A20003200930031352
:10057800870002300317A1000030A2000320080002
:10058800D0208A110A128000840A940A0319950A55
:08059800F003031DC42A080052
:1005A0004C2683120317920193010630831603131E
:1005B0009F008701FF3083128700831685010F306B
:1005C00083128500033083168904B3218D21023004
:1005D000831203179A009B01C1309C0094210030C4
:1005E000831603134006031DF72A00303F06031D40
:1005F0000B2B203083120317A00022202030A000F4
:1006000022202030A00022202030A00022203030E4
:10061000A0002220212B831603133F088312031707
:100620009A00831603134008831203179B00EA30D5
:100630009C00D22102309A0007309B00EA309C00D7
:10064000942101309A009B01AE309C0094210F3020
:100650009F008C2083120317061EA82B861EA82B32
:10066000061FA82B03138918692B053083163F0733
:10067000F00040080318013EF1007008BF00710847
:10068000C0007008831203179A0071089B00EA30BB
:100690009C00D22102309A0007309B00EA309C0077
:1006A000942101309A000D309B00BD309C009421B4
:1006B000013083160313C9000030CA00E8308312EA
:1006C0000317A1000330A200032083160313C901FE
:1006D000CA0183120918A72B58300317A100023052
:1006E000A20003203230831603133F07F0004008B6
:1006F0000318013EF1007008BF007108C0007008C7
:10070000831203179A0071089B00EA309C00D221E3
:1007100002309A0007309B00EA309C00942101309F
:100720009A000D309B00D7309C0094210130831635
:100730000313C9000030CA00E83083120317A10078
:100740000330A200032083160313C901CA012A2B18
:10075000D720700883160313E8007008313A031994
:10076000BE2B6808323A0319BE2B6808333A0319C6
:10077000BE2B68082A3A0319BE2BCE2B01308312F8
:1007800003179A000D309B0035309C00942183168E
:100790000313680883120317A00022208316031393
:1007A0006808313A031D6C2C0C30831203179F002C
:1007B0008C20F430A1000130A2000320822183129A
:1007C000031701309A009B0128309C0094210230CD
:1007D0009A009B0120309C00942100308316031363
:1007E0004006031DF52B00303F06031D092C203069
:1007F00083120317A00022202030A00022202030E6
:10080000A00022202030A00022203030A000222092
:10081000122C8312031702309A0007309B00EA3033
:100820009C0094210030831603134002031D1A2CF0
:1008300005303F02031C552C0130E6000030E70074
:100840000530BF02031CC003C43083120317A1008C
:100850000930A2000320822101309A009B01373029
:100860009C0094219201930104301302031D3A2C41
:100870003830120203184E2C9A01831603136608AF
:10088000831203179B008316031367088312031751
:100890009C001422920A0319930A342CF430A1000C
:1008A0000130A200032082216B2C831203178601E2
:1008B000061E5F2C861E5F2C061F5F2C582CD7202F
:1008C000700883160313E80070082A3A031D6A2C87
:1008D00082216B2CDF2BA72D831603136808323A75
:1008E000031D0A2D0C30831203179F008C20F43057
:1008F000A1000130A20003208221831203170130DE
:100900009A009B01A0309C00942102309A009B0128
:1009100068309C0094210030831603134006031DA9
:10092000932C00303F06031DA72C203083120317A1
:10093000A00022202030A00022202030A000222071
:100940002030A00022203030A0002220B02C8312C2
:10095000031702309A0007309B00EA309C00942174
:100960000030831603134002031DB82C32303F02BF
:10097000031CF32C0330E6000030E7003230BF02E6
:10098000031CC003C43083120317A1000930A20066
:100990000320822101309A009B015B309C0094214E
:1009A0009201930104301302031DD82C3830120237
:1009B0000318EC2C9A01831603136608831203179D
:1009C0009B00831603136708831203179C001422ED
:1009D000920A0319930AD22CF430A1000130A2002C
:1009E00003208221092D831203178601061EFD2C88
:1009F000861EFD2C061FFD2CF62CD72070088316B2
:100A00000313E80070082A3A031D082D8221092DDE
:100A10007D2CA72D831603136808333A031DA72DD9
:100A20000C30831203179F008C20F430A10001309A
:100A3000A200032082218312031701309A009B0138
:100A400044309C00942102309A009B0153309C005A
:100A500094210030831603134006031D312D00300E
:100A60003F06031D452D203083120317A0002220CE
:100A70002030A00022202030A00022202030A00022
:100A800022203030A00022204E2D83120317023086
:100A90009A0007309B00EA309C00942100308316B6
:100AA00003134002031D562D64303F02031C912D99
:100AB0000230E6000030E7006430BF02031CC003D0
:100AC000C43083120317A1000930A2000320822141
:100AD00001309A009B01D9309C009421920193012E
:100AE00004301302031D762D3830120203188A2DAC
:100AF0009A01831603136608831203179B0083165B
:100B000003136708831203179C001422920A031927
:100B1000930A702DF430A1000130A200032082213D
:100B2000A72D831203178601061E9B2D861E9B2D63
:100B3000061F9B2D942DD720700883160313E80001
:100B400070082A3A031DA62D8221A72D1B2D831282
:100B500003176430A1000030A20003208601E72AB9
:020B6000B02DB6
:100C980020308400483083120313F000B630031765
:100CA800940005309500C422A03084000E30F00076
:100CB80036300317940006309500C422683084004B
:100CC8000830F00044300317940006309500C42221
:100CD800AE3084003830F000FE3003179400053041
:060CE8009500C422080083
:100B6C004334723465346434693474343A34003444
:100B7C004934743465346D3431343A34203435347A
:0A0B8C00463469346C3473340034CD
:040B96003A340034B9
:100B9A00503472346F346334653473347334693463
:0A0BAA006E3467342E342E3400340C
:100BB4004934743465346D3433343A342034313444
:0E0BC40030343034463469346C3473340034C9
:100BD2004334723465346434693474343A340034DE
:100BE200503472346F34633465347334733469341B
:0A0BF2006E3467342E342E340034C4
:100BFC00533465346C346534633474342834313490
:0E0C0C002C3432342C34333429343A3400344E
:040C1A003A34003434
:040C1E00003400346A
:100C22004334723465346434693474343A3400348D
:040C32000034003456
:100C3600313432343334343435343634373438346A
:080C460039342A343034233420
:040C4E003A34003400
:100C5200503472346F3463346534733473346934AA
:0A0C62006E3467342E342E34003453
:100C6C004934743465346D3432343A342034353488
:0C0C7C003034463469346C347334003476
:100C88004334723465346434693474343A34003427
:02400E004A2F37
:00000001FF
